:100000000C945D000C9485000C9485000C94850084
:100010000C9485000C9485000C9485000C9485004C
:100020000C9485000C9485000C9485000C949D0321
:100030000C9485000C9485000C9485000C9485002C
:100040000C9453030C9485000C9421030C94FB0234
:100050000C9485000C9485000C9485000C9485000C
:100060000C9485000C94850000000008000201003B
:100070000003040700000000000000000000000072
:10008000250028002B0000000000240027002A0083
:10009000040404040404040402020202020203032E
:1000A0000303030301020408102040800102040836
:1000B0001020010204081020740411241FBECFEF89
:1000C000D8E0DEBFCDBF11E0A0E0B1E0E2E1FCE0AE
:1000D00002C005900D92A231B107D9F721E0A2E14B
:1000E000B1E001C01D92A73EB207E1F710E0CDE5F7
:1000F000D0E004C02197FE010E940106CC35D10753
:10010000C9F70E94AC040C9407060C94000090E020
:10011000FC01EC55FF4F249180579F4FFC018491C7
:10012000882399F090E0880F991FFC01EA57FF4F50
:10013000A591B491FC01E458FF4F859194918FB73C
:10014000F894EC91E22BEC938FBF08951F93CF931B
:10015000DF93EC01162F88818C3008F04DC0862F7C
:100160000E9487008881282F30E0F901EE0FFF1FE1
:10017000E20FF31FE35EFE4F1F736081607C612B13
:10018000608319821A822CE0622F0E94F505829FFB
:10019000B001112430E020E0AB01420F531FFA01FF
:1001A000EE0FFF1FE40FF51FE35EFE4F908196FDFB
:1001B00016C02F5F3F4F2C30310571F781110FC0F2
:1001C0001092800082E0809381001092850010924E
:1001D0008400B19A80916F00826080936F00E88103
:1001E0008E2F90E0FC01EE0FFF1FE80FF91FE35E7A
:1001F000FE4F8081806480838881DF91CF911F9141
:100200000895AF92BF92CF92DF92EF92FF920F9339
:100210001F93CF93DF936C017B018B01040F151F9C
:10022000EB015E01AE18BF08C017D10759F0699104
:10023000D601ED91FC910190F081E02DC601099568
:10024000892B79F7C501DF91CF911F910F91FF9015
:10025000EF90DF90CF90BF90AF900895FC01538D49
:10026000448D252F30E0842F90E0821B930B541790
:1002700010F0CF96089501970895FC01918D828D1D
:10028000981761F0A28DAE0FBF2FB11D5D968C91B6
:10029000928D9F5F9F73928F90E008958FEF9FEFF5
:1002A0000895FC01918D828D981731F0828DE80FB1
:1002B000F11D858D90E008958FEF9FEF0895FC016B
:1002C000918D228D892F90E0805C9F4F821B910938
:1002D0008F739927089581E491E00E945F0121E0E6
:1002E000892B09F420E0822F089580E090E0892B8B
:1002F00029F00E946B0181110C9400000895FC010B
:10030000A48DA80FB92FB11DA35ABF4F2C91848D76
:1003100090E001968F739927848FA689B7892C93D3
:10032000A089B1898C91837080648C93938D848D26
:10033000981306C00288F389E02D80818F7D808329
:100340000895EF92FF920F931F93CF93DF93EC01E9
:1003500081E0888F9B8D8C8D98131AC0E889F9896C
:10036000808185FF15C09FB7F894EE89FF8960836F
:10037000E889F98980818370806480839FBF81E0F0
:1003800090E0DF91CF911F910F91FF90EF90089532
:10039000F62E0B8D10E00F5F1F4F0F731127E02E0D
:1003A0008C8D8E110CC00FB607FCFACFE889F98945
:1003B000808185FFF5CFCE010E947F01F1CFEB8DCB
:1003C000EC0FFD2FF11DE35AFF4FF0829FB7F89419
:1003D0000B8FEA89FB8980818062CFCFCF93DF9337
:1003E000EC01888D8823B9F0AA89BB89E889F9894D
:1003F0008C9185FD03C0808186FD0DC00FB607FC82
:10040000F7CF8C9185FFF2CF808185FFEDCFCE01B4
:100410000E947F01E9CFDF91CF91089590E0FC0128
:10042000E859FF4F2491FC01EC55FF4F3491FC013A
:10043000E057FF4FE491EE23C9F0222339F0233037
:1004400001F1A8F4213019F1223029F1F0E0EE0F8A
:10045000FF1FE458FF4FA591B4918FB7F894EC912A
:10046000611126C030953E233C938FBF08952730FD
:10047000A9F02830C9F0243049F7809180008F7DA1
:1004800003C0809180008F7780938000DFCF84B598
:100490008F7784BDDBCF84B58F7DFBCF8091B0009B
:1004A0008F778093B000D2CF8091B0008F7DF9CF4D
:1004B0003E2BDACF3FB7F8948091190190911A0141
:1004C000A0911B01B0911C0126B5A89B05C02F3F30
:1004D00019F00196A11DB11D3FBFBA2FA92F982F6A
:1004E0008827BC01CD01620F711D811D911D42E065
:1004F000660F771F881F991F4A95D1F70895CF92ED
:10050000DF92EF92FF92CF93DF93EC01603282E0B3
:100510007807CCF5653B710514F064EB70E08981D8
:1005200028E830E0281B310987FD3395220F331F5F
:10053000220F331F6901330FEE08FF088A8128E577
:1005400032E0281B310987FD3395220F331F220F1C
:10055000331F032E000C440B550B2C193D094E097B
:100560005F09DB0177FF02C0B0E0A0E00E94BC059C
:1005700024EB30E040E050E00E949205C20ED31E12
:10058000E41EF51EB601E881EC3070F5298188E89B
:1005900090E0821B910927FD9395880F991F880F82
:1005A000991F681779077CF02A8188E592E0821B01
:1005B000910927FD9395880F991F880F991F681738
:1005C00079070CF4CB010297880F991F4FB7F89465
:1005D0002E2F30E0F901EE0FFF1FE20FF31FE35E55
:1005E000FE4F928381834FBFDF91CF91FF90EF90B9
:1005F000DF90CF9008951F920F920FB60F921124A3
:100600002F933F934F935F936F937F938F939F931A
:10061000AF93BF93EF93FF9381E491E00E947F013A
:10062000FF91EF91BF91AF919F918F917F916F91CA
:100630005F914F913F912F910F900FBE0F901F90A0
:1006400018951F920F920FB60F9211242F938F932C
:100650009F93EF93FF93E0915101F09152018081BC
:10066000E0915701F091580182FD1BC0908180916B
:100670005A018F5F8F7320915B01821741F0E091E7
:100680005A01F0E0EF5BFE4F958F80935A01FF9186
:10069000EF919F918F912F910F900FBE0F901F9010
:1006A00018958081F4CF1F920F920FB60F921124EC
:1006B0002F933F938F939F93AF93BF938091150197
:1006C00090911601A0911701B09118013091140179
:1006D00023E0230F2D3758F50196A11DB11D20935E
:1006E00014018093150190931601A0931701B09304
:1006F00018018091190190911A01A0911B01B091EC
:100700001C010196A11DB11D8093190190931A013E
:10071000A0931B01B0931C01BF91AF919F918F914A
:100720003F912F910F900FBE0F901F90189526E8C4
:10073000230F0296A11DB11DD2CF1F920F920FB6AB
:100740000F9211242F933F934F935F936F937F9357
:100750008F939F93AF93BF93CF93DF93EF93FF93C9
:1007600080911201C0911301D0E087FF24C0109244
:10077000850010928400809112018F5F8093120196
:1007800080911201082E000C990B8C179D0724F400
:10079000809112018C30C4F1809184009091850089
:1007A000049680349C4908F47AC08091840090912A
:1007B0008500049676C080911201082E000C990BDA
:1007C0008C179D07C4F6E09112018E2FEE0F990B46
:1007D000FC01EE0FFF1FE80FF91FE35EFE4F808163
:1007E00086FFC9CFE09112018E2FEE0F990BFC010D
:1007F000EE0FFF1FE80FF91FE35EFE4F808160E000
:100800008F730E940E02B7CF209184003091850033
:10081000E09112018E2FEE0F990BFC01EE0FFF1FDE
:10082000E80FF91FE35EFE4F81819281820F931FD3
:100830009093890080938800E09112018E2FEE0F33
:10084000990BFC01EE0FFF1FE80FF91FE35EFE4F4F
:10085000808186FF11C0E09112018E2FEE0F990B5F
:10086000FC01EE0FFF1FE80FF91FE35EFE4F8081D2
:1008700061E08F730E940E02FF91EF91DF91CF91A3
:10088000BF91AF919F918F917F916F915F914F91A8
:100890003F912F910F900FBE0F901F90189580E4FD
:1008A0009CE990938900809388008FEF80931201D8
:1008B000E3CFFC01909113019C3098F481E0890F03
:1008C000809313019083892F90E0FC01EE0FFF1FAE
:1008D000E80FF91FE35EFE4F88EB9BE09283818374
:1008E00008958FEF80830895E1E4F1E0138212828E
:1008F00088EE93E0A0E0B0E084839583A683B7837D
:1009000084E091E09183808385EC90E095878487F3
:1009100084EC90E09787868780EC90E0918B808BC9
:1009200081EC90E0938B828B82EC90E0958B848BB2
:1009300086EC90E0978B868B118E128E138E148E20
:1009400084EE91E00E94590481EE91E00E945904E6
:100950008EED91E00C945904789484B5826084BD46
:1009600084B5816084BD85B5826085BD85B58160B3
:1009700085BD80916E00816080936E001092810031
:1009800080918100826080938100809181008160EC
:1009900080938100809180008160809380008091AD
:1009A000B10084608093B1008091B0008160809339
:1009B000B00080917A00846080937A0080917A0000
:1009C000826080937A0080917A00816080937A00BF
:1009D00080917A00806880937A001092C100E09143
:1009E0005101F091520182E08083E0914D01F0913C
:1009F0004E011082E0914F01F09150018FEC808305
:100A000010925901E0915501F091560186E08083E2
:100A1000E0915301F0915401808180618083E091E5
:100A20005301F0915401808188608083E0915301EB
:100A3000F0915401808180688083E0915301F091AE
:100A4000540180818F7D80836AE070E084EE91E0C4
:100A50000E94A6006BE070E081EE91E00E94A6008B
:100A60006CE070E08EED91E00E94A6008DE00E94A7
:100A7000870000E010E0D0E0C0E0BE0184EE91E02D
:100A80000E947F022A96C83CD105B9F7CEEBD0E090
:100A9000BE0181EE91E00E947F022A97C63F2FEFB0
:100AA000D207B1F7D0E0C0E0BE018EED91E00E9428
:100AB0007F022A96C83CD105B9F70E945A024B0121
:100AC0005C0180EDC82E87E0D82EE12CF12C0E942D
:100AD0005A02681979098A099B09683E73408105A1
:100AE0009105A8F381E0C81AD108E108F10828EEC1
:100AF000820E23E0921EA11CB11CC114D104E1049A
:100B0000F10429F761E08DE00E940E020115110544
:100B100009F4B1CF0E946B01882309F4ACCF0E9485
:100B20000000A9CF052E97FB1EF400940E94A90592
:100B300057FD07D00E94C40507FC03D04EF40C9467
:100B4000A90550954095309521953F4F4F4F5F4FE8
:100B5000089590958095709561957F4F8F4F9F4F29
:100B600008950E94E605A59F900DB49F900DA49F47
:100B7000800D911D11240895B7FF0C94B1050E94BA
:100B8000B105821B930B0895A1E21A2EAA1BBB1B71
:100B9000FD010DC0AA1FBB1FEE1FFF1FA217B30749
:100BA000E407F50720F0A21BB30BE40BF50B661F5F
:100BB000771F881F991F1A9469F760957095809523
:100BC00090959B01AC01BD01CF010895A29FB0019A
:100BD000B39FC001A39F700D811D1124911DB29F71
:100BE000700D811D1124911D0895991B79E004C099
:100BF000991F961708F0961B881F7A95C9F780955C
:100C00000895EE0FFF1F0590F491E02D0994F894DC
:020C1000FFCF14
:100C120000000000A10101012E01EE015F013D0172
:020C220051017E
:00000001FF
